:100000000C94F9040C942A050C942A050C942A05E6
:100010000C942A050C942A050C942A050C942A05A4
:100020000C942A050C94BA2D0C94BA2D0C94BA2D6C
:100030000C942A050C942A050C942A050C942A0584
:100040000C942A050C942A050C942A050C942A0574
:100050000C942A050C942A050C942A050C94502B18
:100060000C942A050C946C2C0C94422C0C942A05AC
:100070000C942A050C942A050C942A050C942A0544
:100080000C942A050C942A050C942A050C942A0534
:100090000C94182C0C94EE2B0C942A050C94962C92
:1000A0000C942A050C942A050C942A050C942A0514
:1000B0000C942A050C942A050C942A050C942A0504
:1000C0000C942A050C942A050C942A050C94C42B34
:1000D0000C949A2B0C942A050C942A050C942A054E
:1000E0000C942A050C94CE050C94A6320C94A21301
:1000F0000C9437070C9409320C94E2060C94A0324D
:100100000C9416160C948F050C94CA050C94930548
:100110000C9469050C9446150C94BC050C949C0633
:100120000C944F0A0C9489050C94790A0C94A9320A
:100130000C94B2050C9437130C9497050C94C405D9
:100140000C94A8050C94F1060C9445070C94DE075A
:100150000C9491070C9457150C94AE050C942E1624
:100160000C945F0A0C946A050C94063E0C94A0163D
:100170000C94C1160C94F2280C94C0050C949C08A5
:100180000C948E320C94A4050C94500A0C94C9055E
:100190000C948A160C94CD120C94720A0C94FD31B6
:1001A0000C94BC080C94C3120C94A60A0C949732BD
:1001B0000C949E050C94B6050C94A92E0C94CC08B6
:1001C0000C949B050C943C1D0C944A1E0C94AC3270
:1001D0000C94A3320C9462065B5049525D204F761A
:1001E0006572726964652063616E63656C6C6564D9
:1001F00020E28094206D616E75616C206D6F646586
:1002000020726573746F726564005B524F57335D83
:1002100020005B524F57325D20005B524F57315DDB
:1002200020005B474154455D205049522061637472
:1002300069766520E28094206D616E75616C204F57
:10024000464620626C6F636B65642E2053656E6456
:1002500020414C4C3A4F464620746F206F766572B1
:10026000726964652E005B53594E435D2000202D5A
:1002700020003A20005B53434845445D20496E20EE
:10028000736C6F7420005B53434845445D204E6F90
:10029000207363686564756C65206C6F6164656468
:1002A000005B53434845445D205265717565737426
:1002B0006564207363686564756C652066726F6D34
:1002C00020736572766572207669612045535033DC
:1002D00032007C3C3E5E2B3D3F2F5B5D3B2C2A2257
:1002E0005C003D3D3D204C554D494E4553454E53D8
:1002F00045205265616479203D3D3D005B53445D7E
:100300002043535620686561646572207772697472
:1003100074656E00446174652C54696D652C536579
:100320007373696F6E5F4475726174696F6E5F6D30
:10033000696E2C4176675F566F6C746167655F56B6
:100340002C4176675F43757272656E745F412C5401
:100350006F74616C5F456E657267795F5768005BAB
:1003600053445D204F4B005B53445D204641494C54
:100370004544206F72206E6F206361726420E280BA
:1003800094206C6F6767696E672064697361626C43
:1003900065640032313A31303A3230004D617920B3
:1003A00032342032303236005B5254435D204C6F81
:1003B000737420706F77657220E280942073657487
:1003C00074696E6720636F6D70696C652074696D08
:1003D00065005B5254435D204F4B005B5254435DBC
:1003E000204641494C454420E2809420436865639F
:1003F0006B20776972696E6721003D3D3D204C5549
:100400004D494E4553454E534520426F6F74696EBA
:10041000672E2E2E203D3D3D00202D20003A20004D
:100420005B53434845445D20536C6F742000207338
:100430006C6F74287329005B53434845445D204C1E
:100440006F6164656420005B455350333220434D37
:10045000445D2000000020002300260029002C001D
:100460002F003200000100000301060109012000F5
:100470005B53455353494F4E5D205374617274650D
:100480006420617420005B5049525D20486F6C64A9
:100490002074696D65206578706972656420E280FA
:1004A000942072656C656173696E672050495220B3
:1004B0006F76657272696465005B5049525D204DCC
:1004C0006F74696F6E206F757473696465207363F0
:1004D000686564756C6520E28094206C6967687457
:1004E00073204F4E2028756E7363686564756C6564
:1004F0006429005B5049525D204D6F74696F6E2016
:1005000077697468696E207363686564756C656487
:1005100020636C61737320E28094206C6967687457
:1005200073204F4E005B5049525D204D6F74696FD0
:100530006E20646574656374656420E2809420664F
:100540006F7263696E67206C6967687473204F4EC1
:10055000002050463A0020487A3A002057683A0076
:1005600020573A0020413A005B505A454D5D2056D5
:100570003A005B505A454D5D2052656164206572BA
:10058000726F7220E2809420636865636B207769E4
:1005900072696E67005B4A534F4E5D20005B5344A7
:1005A0005D204361726420756E617661696C616281
:1005B0006C6520E28094206C6F67206E6F742073EE
:1005C00061766564005B53445D204661696C6564D7
:1005D00020746F206F70656E206C6F672066696C89
:1005E0006521005B53445D2053657373696F6E2012
:1005F0006C6F6767656420746F204353560020203A
:10060000546F74616C20456E657267793A200020E2
:10061000204176672043757272656E743A2000201F
:100620002041766720566F6C746167653A20002020
:100630006D696E0020204475726174696F6E3A2096
:10064000002020456E643A200020205374617274AB
:100650003A20002020446174653A20005B534553E2
:1006600053494F4E5D20456E64656420E2809420BE
:10067000636F6D70696C696E67206C6F6720656E63
:10068000747279005B53434845445D20436C617349
:100690007320656E64656420E28094206C6F6767E8
:1006A000696E672073657373696F6E0000002100C7
:1006B000240027002A002D00300033000101000033
:1006C000040107010A0100002200250028002B0078
:1006D0002E003100340002010000050108010B0169
:1006E00005050505070508080808020202020A0AAE
:1006F00008080404040401010101010101010303CC
:10070000030303030303040707070C0C0C0C0C0C76
:100710000C0C0202020206060606060606060B0B73
:100720000B0B0B0B0B0B01021020200808102040B4
:1007300010204080020102010804020101020408A5
:100740001020408080402010080402018004020133
:10075000804020100804020108040201010204087C
:1007600010204080010204081020408000000A0B85
:1007700002090C0D0E080703040100000000000030
:100780000000000000000000000000000000000069
:100790000000000000000000121110000000000026
:1007A0000000000000000000000000000000000049
:1007B0000000CDCCCC3D0AD7233C17B7D13877CC3D
:1007C0002B329595E6241FB14F0A0000204100000E
:1007D000C84200401C4620BCBE4CCA1B0E5AAEC5C7
:1007E0009D740000C1C081C1400101C3C0038002EB
:1007F00041C201C6C006800741C70005C1C581C40A
:10080000400401CCC00C800D41CD000FC1CF81CE82
:10081000400E000AC1CA81CB400B01C9C009800843
:1008200041C801D8C018801941D9001BC1DB81DA49
:10083000401A001EC1DE81DF401F01DDC01D801C8B
:1008400041DC0014C1D481D5401501D7C0178016F2
:1008500041D601D2C012801341D30011C1D181D041
:10086000401001F0C030803141F10033C1F381F21A
:1008700040320036C1F681F7403701F5C03580348B
:1008800041F4003CC1FC81FD403D01FFC03F803E82
:1008900041FE01FAC03A803B41FB0039C1F981F8C1
:1008A00040380028C1E881E9402901EBC02B802AAB
:1008B00041EA01EEC02E802F41EF002DC1ED81EC09
:1008C000402C01E4C024802541E50027C1E781E6F2
:1008D00040260022C1E281E3402301E1C0218020C3
:1008E00041E001A0C060806141A10063C1A381A279
:1008F00040620066C1A681A7406701A5C06580640B
:1009000041A4006CC1AC81AD406D01AFC06F806E81
:1009100041AE01AAC06A806B41AB0069C1A981A840
:1009200040680078C1B881B9407901BBC07B807A4A
:1009300041BA01BEC07E807F41BF007DC1BD81BC88
:10094000407C01B4C074807541B50077C1B781B6F1
:1009500040760072C1B281B3407301B1C071807042
:1009600041B00050C190819140510193C0538052D9
:1009700041920196C056805741970055C195819488
:100980004054019CC05C805D419D005FC19F819E81
:10099000405E005AC19A819B405B0199C0598058C2
:1009A00041980188C04880494189004BC18B818AA8
:1009B000404A004EC18E818F404F018DC04D804C0A
:1009C000418C0044C184818540450187C0478046F1
:1009D00041860182C042804341830041C1818180C0
:1009E00040401F1C1F1E1F1E1F1F1E1F1E00A92E62
:1009F000063E11241FBECFEFD1E2DEBFCDBF00E027
:100A00000CBF29E0A2EBB3E001C01D92AA3AB207E5
:100A1000E1F713E0A0E0B2E0ECE0FDE800E00BBF9E
:100A200002C007900D92A23BB107D9F714E0C8EFBE
:100A3000D4E000E006C021970109802FFE010E944A
:100A40003A41C73FD10780E00807A9F70E94F52F78
:100A50000C9474460C940000CF93DF93EC019A0140
:100A6000AB0160E079E08DE390E00E94F940BA01CB
:100A7000A90141505109610971097695679557950A
:100A80004795E889F98982E08083EC85FD85852F8B
:100A900099278083EE85FF854083188EEC89FD8938
:100AA00086E08083EA89FB89808180618083EA898E
:100AB000FB89808188608083EA89FB8980818068E6
:100AC0008083EA89FB8980818F7D8083DF91CF914C
:100AD0000895089508958150823108F05AC0E82F92
:100AE000F0E08827E958FA4F8F4F0C943A41970568
:100AF0009B0589058F059305C9059E05A405A805D5
:100B0000AE05B205B605BC05C005C905C405CA05D4
:100B1000CE05809180008F7780938000089580912A
:100B200080008F7DF9CF80918000877FF5CF84B5DD
:100B30008F7784BD089584B58F7DFBCF8091B00001
:100B40008F778093B00008958091B0008F7DF9CFAA
:100B5000809190008F77809390000895809190000D
:100B60008F7DF9CF80919000877FF5CF8091A00095
:100B70008F778093A00008958091A0008F7DF9CF9A
:100B80008091A000877FF5CF809120018F7780939F
:100B900020010895809120018F7DF9CF809120015F
:100BA000877FF5CF1F93CF93DF93282F30E0F90194
:100BB000E459F84F8491F901EA5DF84FD491F901B5
:100BC000E052F94FC491CC23A9F0162F81110E9455
:100BD0006B05EC2FF0E0EE0FFF1FEA53F94FA591E4
:100BE000B4918FB7F894EC91111108C0D095DE2321
:100BF000DC938FBFDF91CF911F910895DE2BF8CF4B
:100C0000CF93DF9390E0FC01EA5DF84F249180528E
:100C1000994FFC0184918823D1F090E0880F991FAF
:100C2000FC01E455F94FA591B491FC01EA53F94F49
:100C3000C591D49161110EC09FB7F8948C91E22FA9
:100C4000E0958E238C932881E223E8839FBFDF9178
:100C5000CF9108958FB7F894EC91E22BEC938FBF6E
:100C6000F6CF3FB7F89480919C0490919D04A09199
:100C70009E04B0919F0426B5A89B05C02F3F19F094
:100C80000196A11DB11D3FBFBA2FA92F982F88270C
:100C9000BC01CD01620F711D811D911D42E0660FE7
:100CA000771F881F991F4A95D1F708952FB7F89499
:100CB000609198047091990480919A0490919B049A
:100CC0002FBF08950895DC01ED91FC910190F08112
:100CD000E02D1994DB0114964D915C9115976D915F
:100CE0007C91DC01ED91FC910280F381E02D19945F
:100CF000EF92FF920F931F93CF93DF938C017B01B1
:100D0000D0E0C0E0F701EC0FFD1F6491662361F0B5
:100D1000D801ED91FC910190F081E02DC801199569
:100D2000892B11F02196EECFCE01DF91CF911F914B
:100D30000F91FF90EF900895AF92BF92CF92DF9204
:100D4000EF92FF920F931F93CF93DF936C017B0180
:100D50008B01040F151FEB015E01AE18BF08C01711
:100D6000D10759F06991D601ED91FC910190F08184
:100D7000E02DC6011995892B79F7C501DF91CF9137
:100D80001F910F91FF90EF90DF90CF90BF90AF90A9
:100D90000895FC01A089B1898C91A689B78982FD4B
:100DA0000FC09C91818D8F5F8F73228D821749F0C8
:100DB000A18DAE0FBF2FB11D5D969C93818F0895BD
:100DC0008C910895FC01538D448D252F30E0842FA4
:100DD00090E0821B930B541710F0CF960895019763
:100DE0000895FC01918D828D981761F0A28DAE0F50
:100DF000BF2FB11D5D968C91928D9F5F9F73928FD7
:100E000090E008958FEF9FEF08950F931F930E9436
:100E1000560660933F077093400780934107909375
:100E2000420787E397E00E94F10697FF1DC00E94EA
:100E3000560600913F0710914007209141073091DD
:100E40004207601B710B820B930B00913B071091C3
:100E50003C0720913D0730913E07601771078207DC
:100E60009307F8F28FEF9FEF1F910F910895FC0108
:100E7000918D828D981731F0828DE80FF11D858D4F
:100E800090E008958FEF9FEF0895FC01918D228DE2
:100E9000892F90E0805C9F4F821B91098F73992767
:100EA000089587E397E00E94450721E0892B09F424
:100EB00020E0822F089580EE98E00E94450721E00F
:100EC000892B09F420E0822F089584ED97E00E9499
:100ED000450721E0892B09F420E0822F0895FC01C9
:100EE000A48DA80FB92FB11DA35ABF4F2C91848D8B
:100EF00090E001968F739927848FA689B7892C93E8
:100F0000A089B1898C91837080648C93938D848D3A
:100F1000981306C00288F389E02D80818F7D80833D
:100F20000895EF92FF920F931F93CF93DF93EC01FD
:100F300081E0888F9B8D8C8D98131AC0E889F98980
:100F4000808185FF15C09FB7F894EE89FF89608383
:100F5000E889F98980818370806480839FBF81E004
:100F600090E0DF91CF911F910F91FF90EF90089546
:100F7000F62E0B8D10E00F5F1F4F0F731127E02E21
:100F80008C8D8E110CC00FB607FCFACFE889F98959
:100F9000808185FFF5CFCE010E946F07F1CFEB8DE9
:100FA000EC0FFD2FF11DE35AFF4FF0829FB7F8942D
:100FB0000B8FEA89FB8980818062CFCFCF93DF934B
:100FC000EC01888D8823B9F0AA89BB89E889F98961
:100FD0008C9185FD03C0808186FD0DC00FB607FC96
:100FE000F7CF8C9185FFF2CF808185FFEDCFCE01C9
:100FF0000E946F07E9CFDF91CF91089580E090E0E4
:10100000892B29F00E94650781110E94000080E071
:1010100090E0892B29F00E945B0781110E9400005B
:1010200080E090E0892B29F00E94510781110E94F5
:10103000000080E090E0892B49F080E090E0892B6F
:1010400029F00E94000081110C94000008958EBDCB
:1010500000000DB407FEFDCF8EB508958FEF0C9400
:1010600027080F931F93CF93DF93EC010E9456063E
:101070008B010E942E088F3F69F00E945606601B6C
:10108000710B6C177D07A8F380E0DF91CF911F9162
:101090000F91089581E0F9CFFC01DB0112968D914B
:1010A0009C9113979383828380E592E09183808360
:1010B00014968C911497848315968C91159785833B
:1010C00016964D915D916D917C911997468357834A
:1010D000608771871A964D915D916D917C911D97F6
:1010E00042875387648775871E964D915D916D91F8
:1010F0007C91519746875787608B718B52968C9164
:101100005297828B53964D915D916D917C9156973C
:10111000438B548B658B768B57964D915D916D917A
:101120007C915A97478B508F618F728F5B968D9110
:101130009C91948F838F0895DC015996ED91FC91D9
:101140003097B9F083899489A589B68942855385FA
:1011500064857585841B950BA60BB70B811520E85C
:101160009207A105B10538F08FEF9FE7A0E0B0E04E
:10117000089590E080E00895DC0159968D919C914E
:10118000009739F0DC01ED91FC910480F581E02DB0
:10119000199490E080E00895CF93DF931F92CDB72C
:1011A000DEB76983DC01ED91FC910280F381E02DD3
:1011B00041E050E0BE016F5F7F4F19950F90DF91C6
:1011C000CF91089520911404260F3327331F213225
:1011D0003105ECF42091EE04FC0190E080E0243035
:1011E00069F082E00895A09114042191AC014C5063
:1011F0005C4FA40FB52FB11D2C930196861798F361
:1012000080911404680F6093140480E0089581E0D5
:1012100008951092EE0481E08093ED041092C804CA
:1012200061E084E10E94D20561E085E10E94D2057F
:10123000E9EBF0E080818E7F808380818D7F8083E9
:1012400088E48093B80085E48093BC0008951092F0
:10125000A7041092A6041092F504109217050E949C
:10126000090989E695E09093A3048093A2048AE695
:1012700095E09093A1048093A0040895CF93DF9309
:1012800091E09093F3038823B9F0C091B800D09116
:10129000BA008091BC008A7B8093BC0060E084E14E
:1012A0000E94D20560E085E10E94D2050E940909F2
:1012B000D093BA00C093B800DF91CF9108958F9278
:1012C0009F92AF92BF92CF92DF92EF92FF920F93D5
:1012D0001F93CF93DF93D0911705D13208F0D7C079
:1012E000182FC09116050E9431066B017C01809178
:1012F000EE0481116BC082E08093EE041093ED0444
:101300008FEF8093EC041092EB04D093EA04A6EFE5
:10131000B4E0EAECF4E080E0D81391C01092C90484
:101320008091C904CC0FC82BC093C9048091C80414
:10133000813009F088C01092C8040E9431066B0108
:101340007C018091C9048093BB008091F00490914E
:10135000F104A091F204B091F304892B8A2B8B2B1A
:10136000A1F00E9431060091F0041091F104209147
:10137000F2043091F3046C197D098E099F09061758
:1013800017072807390708F442C08091BC0083FD85
:10139000D8CF85EC8093BC000E9431066B017C01A4
:1013A0008091EE04823009F450C08091EC048F3FAC
:1013B00009F46FC08091EC04803209F46CC0809114
:1013C000EC04803309F469C084E026C08091F00405
:1013D0009091F104A091F204B091F304892B8A2B2F
:1013E0008B2B09F484CF0E9431068090F0049090FA
:1013F000F104A090F204B090F3046C197D098E09F9
:101400009F0986169706A806B90608F070CF809146
:10141000EF040E943E0985E01092F5041092170532
:101420001092F404DF91CF911F910F91FF90EF90F4
:10143000DF90CF90BF90AF909F908F9008959D9137
:1014400091938F5F69CF85EEA5CF8091F004909145
:10145000F104A091F204B091F304892B8A2B8B2B19
:1014600009F49ECF0E9431060091F0041091F1041E
:101470002091F2043091F3046C197D098E099F09C3
:10148000061717072807390708F08ACFC0CF81E071
:10149000C3CF80E0C1CF82E0BFCF83E0BDCF08954E
:1014A000E091A7048091A604E81730F4F0E0E85535
:1014B000FB4F808190E008958FEF9FEF089590910A
:1014C000A7048091A6042FEF3FEF981748F4E92F67
:1014D000F0E0E855FB4F208130E09F5F9093A70438
:1014E000C90108958091A6049091A704891B990BC6
:1014F0000895CF92DF92EF92FF920F931F93CF93B5
:10150000DF937C01CB018A012091F404222389F02E
:10151000EB016B01C40ED51ECC15DD0569F0699198
:10152000D701ED91FC910190F081E02DC701199553
:10153000F3CF642F0E94E208C801DF91CF911F9181
:101540000F91FF90EF90DF90CF900895CF93DF93AE
:101550001F92CDB7DEB769832091F4042223F9F0FE
:1015600020911705203258F021E030E0FC01338350
:10157000228390E080E00F90DF91CF9108958091D9
:10158000F504E82FF0E0EA50FB4F998190838F5FDC
:101590008093F5048093170581E090E0ECCF61E043
:1015A000CE0101960E94E208F7CF8FB7F8948091A0
:1015B000F2038FBF089561E0FC0184810E94D2058F
:1015C0008091370481111092370408958CBD9DBD20
:1015D0000895CF93DF93EC0180913704811109C006
:1015E00081E08093370480917108909172080E9485
:1015F000E60A60E08C81DF91CF910C94D2058F9246
:101600009F92AF92BF92FF920F931F93CF93DF935E
:10161000EC01F62E49015A018E81882389F08F81D1
:1016200098859C012F5F3F4F38872F8382309240EF
:1016300018F40E942E08F3CFCE010E94DB0A1E820E
:10164000CE010E94E90A8CE291E00E9431088F2DC0
:1016500080640E94270808E110E0D501C401002E33
:1016600004C0B695A795979587950A94D2F70E94DE
:10167000270808501109083F8FEF180771F785E90F
:10168000FF2021F028E087E8F2128FEF0E94270860
:1016900010E00E942E088A8787FF04C01F3F11F0C8
:1016A0001F5FF7CFDF91CF911F910F91FF90BF90F8
:1016B000AF909F908F900895AF92BF92CF92DF929C
:1016C000EF92FF920F931F93CF93DF93EC01690189
:1016D000C801820F931F8130924050F58E8188237C
:1016E00079F088819981AA81BB8184179507A60723
:1016F000B70731F48F819885C816D90608F042C023
:10170000488359836A837B838B85833039F089E0F2
:10171000440F551F661F771F8A95D1F79A01AB01B9
:1017200061E1CE010E94FF0A882389F083E08D8366
:10173000CE010E94DB0A80E0DF91CF911F910F91D3
:10174000FF90EF90DF90CF90BF90AF9008950E94F0
:1017500056065B010E942E088A878F3F69F40E941B
:1017600056066A197B096D327140A0F38FE08D83B4
:10177000CE010E94DB0ADCCF8E3F89F418861F82DF
:1017800081E08E838F8198858C159D0550F40E9491
:101790002E088F819885019698878F83F3CF8DE0EF
:1017A000E6CF6701E00EF11E0E942E08F60181933C
:1017B0006F01EE15FF05C1F78F819885080F191F7E
:1017C00018870F838985882319F001151240A0F02E
:1017D0008E81882389F08F8198859C012F5F3F4FF0
:1017E00038872F838230924018F40E942E08F3CF5E
:1017F000CE010E94DB0A1E8281E09ECFCF92DF9253
:10180000EF92FF920F93CF93DF93EC01690182E196
:10181000411551056105710599F08B85833039F0CB
:1018200089E0440F551F661F771F8A95D1F79A01EB
:10183000AB0168E1CE010E94FF0A882319F084E021
:101840008D832DC08EEF0E94270876018EEFD81A67
:10185000F70181917F010E942708EC14FD04C1F774
:101860008FEF0E9427088FEF0E9427080E942E0802
:101870008A878F71853071F4011116C0CE010E94E4
:10188000DB0A81E0DF91CF910F91FF90EF90DF9025
:10189000CF90089581E18D83CE010E94DB0ACE01B5
:1018A0000E94DB0A80E0EECF88E592E00E943108DA
:1018B000811102C085E1C4CF20E030E0A9016DE0D4
:1018C000CE010E94FF0A882311F084E1B9CF0E9463
:1018D0002E088111FACFD2CF0F9340913904509145
:1018E0003A0460913B0470913C0441155105610537
:1018F000710599F0082F28E135E080911807909143
:1019000019070E94FE0B882349F0109239041092A7
:101910003A0410923B0410923C0481E00F91089528
:101920000F93CF93C82F80913804811105C0C1E077
:101930008C2FCF910F910895409102025091030294
:1019400060910402709105020C2F28E135E080912E
:101950001807909119070E94FE0B811102C0C0E088
:10196000E7CFCC2321F381E00E946C0C8823B9F3EC
:1019700010923804DDCF8F929F92AF92BF92EF9278
:10198000FF920F931F93CF934B015C01C42F809163
:10199000020290910302A0910402B0910502881501
:1019A0009905AA05BB0551F181E00E94900C8111B7
:1019B0000BC080E0CF911F910F91FF90EF90BF90EF
:1019C000AF909F908F90089588E1E82E85E0F82EE3
:1019D00000E012E030E020E0B501A401809118079A
:1019E000909119070E945C0B882319F380920202E0
:1019F00090920302A0920402B09205024091380432
:101A00004C2B4093380481E0D5CF8F929F92AF92B8
:101A1000BF92CF92DF92EF92FF92CF9323E738E00D
:101A20003093190720931807882309F46DC040E00C
:101A300060E070E0CB010E94BB0C81110BC080E024
:101A4000CF91FF90EF90DF90CF90BF90AF909F909D
:101A50008F9008958091D6068F7789F78091E2065E
:101A60009091E306A091E406B091E50684369105D5
:101A7000A105B10520F3C090DE06D090DF06E0900E
:101A8000E006F090E106C114D104E104F104B9F2DA
:101A900040E0C701B6010E94BB0C882381F280910F
:101AA0002305909124058115924049F6A0912805BF
:101AB000AA2329F260912605709127056115710509
:101AC00009F4BDCF20912505222309F4B8CFA093B6
:101AD00091082093830890E080E030E0E1E0F0E0BE
:101AE000C82FAF01082E02C0440F551F0A94E2F719
:101AF0002417350769F041E0480F019689309105B8
:101B000079F740938C089BCFC12CD12C7601C0CFA4
:101B100080938C0820912E0530912F0550E040E0F5
:101B20002115310541F420913C0530913D0540914E
:101B30003E0550913F0520938408309385084093DB
:101B400086085093870846015701860E971EA11CF0
:101B5000B11C8092920890929308A0929408B0923F
:101B60009508E0912905F0912A05F0939808E093F3
:101B70009708B0E00E94A73FDC01CB01880D991DBA
:101B8000AA1DBB1D8093990890939A08A0939B0867
:101B9000B0939C0825E0EE0FFF1F2A95E1F7E15076
:101BA000FE4FEF2FFF27E6958E0F9F1FA11DB11D42
:101BB00080938D0890938E08A0938F08B09390081F
:101BC00080902B0590902C05B12CA12C81149104B0
:101BD00041F48090380590903905A0903A05B09076
:101BE0003B05C81AD90AEA0AFB0AC80CD91CEA1C28
:101BF000FB1C04C0F694E794D794C794CA95D2F717
:101C0000C0928808D0928908E0928A08F0928B08E6
:101C100085EFC8168FE0D806E104F10428F48CE0C3
:101C20008093960881E00CCF80E125EFC2162FEF5C
:101C3000D206E104F104A0F380914405909145059A
:101C4000A0914605B09147058093990890939A0812
:101C5000A0939B08B0939C0880E2E2CF4F925F92E2
:101C60006F927F928F929F92AF92BF92CF92DF92AC
:101C7000EF92FF920F931F93CF93DF93EC014230CB
:101C800051056105710590F480E0DF91CF911F91BE
:101C90000F91FF90EF90DF90CF90BF90AF909F900B
:101CA0008F907F906F905F904F90089589859A856F
:101CB000AB85BC850196A11DB11D84179507A607AC
:101CC000B70710F3CB88DC88ED88FE888F898031D8
:101CD00009F042C0BB27A72F962F852F4801590135
:101CE0002A013B01C80ED91EEA1EFB1E809102028A
:101CF00090910302A0910402B0910502C816D90682
:101D0000EA06FB0699F58F898031C1F5B301A2017E
:101D1000552766277727440F551F485E5A4FFA010B
:101D200091828082809138048160809338048A890E
:101D3000823080F08D819E81AF81B8858C0D9D1D94
:101D4000AE1DBF1D8093390490933A04A0933B04C9
:101D5000B0933C0481E099CFDB01CA01E7E0B6957E
:101D6000A79597958795EA95D1F7B8CF40E0C70139
:101D7000B6010E94BB0C8111C6CF86CFB301A20170
:101D80004F77552766277727440F551F440F551F58
:101D9000485E5A4FFA0180829182A282B382C2CFFA
:101DA0008F929F92AF92BF92CF92DF92EF92FF926B
:101DB0000F931F93CF93DF93FC0181859285A385B9
:101DC000B4850196A11DB11D84179507A607B70715
:101DD00070F480E0DF91CF911F910F91FF90EF9011
:101DE000DF90CF90BF90AF909F908F9008958388A1
:101DF0009488A588B6888789803189F5BB27A72F65
:101E0000962F852FE9016A017B018F01BC01CD016D
:101E1000680D791D8A1D9B1D80900202909003021F
:101E2000A0900402B090050286169706A806B9068F
:101E300001F5F8018789803111F5DD24EE24FF24B6
:101E4000F601EE0FFF1FE85EFA4F80819181B0E04E
:101E5000A0E088839983AA83BB8381E0BBCFDB01A9
:101E6000CA01C7E0B695A79597958795CA95D1F70A
:101E7000C9CF40E00E94BB0C8111DBCFAACFE89410
:101E8000C7F8DD24EE24FF24F601EE0FFF1FEE0F4E
:101E9000FF1FE85EFA4F80819181A281B381BF70FC
:101EA000D8CF4F925F926F927F92AF92BF92CF92B4
:101EB000DF92EF92FF920F931F93CF93DF9300D0A7
:101EC0001F92CDB7DEB78C0149835A836B837C8325
:101ED0005901C12CD12C7601412C82E0582E612C65
:101EE000712C49815A816B817C819E012F5F3F4F0C
:101EF000C8010E94D00E882339F1F8018585A3011D
:101F0000920104C0220F331F441F551F8A95D2F738
:101F1000DA01C901C80ED91EEA1EFB1E49815A8189
:101F20006B817C818789803111F188EF9FEFAFEF62
:101F3000BFE0481759076A077B0798F2F501C0828E
:101F4000D182E282F38281E00F900F900F900F9088
:101F5000DF91CF911F910F91FF90EF90DF90CF9085
:101F6000BF90AF907F906F905F904F90089588EFF3
:101F70009FEFA0E0B0E0DDCFCF93DF93FC012581A0
:101F8000222321F080E0DF91CF910895EC01809130
:101F90009608803159F582E08583178A108E118E5C
:101FA000128E8091970890919808B0E0A0E025E00B
:101FB000880F991FAA1FBB1F2A95D1F7838B948B7B
:101FC000A58BB68B8FE798E09C8F8B8F81E08C83FD
:101FD0001E821F82188619861A861B861C861D86FD
:101FE0001E861F86188A198A1A8ACDCF803251F62A
:101FF00083E085834091990850919A0860919B08ED
:1020000070919C08478B508F618F728F9F012D5E5E
:102010003F4F8FE798E00E94510F8111D3CFB2CF8D
:102020008F929F92AF92BF92CF92DF92EF92FF92E8
:102030000F931F93CF93DF93EC018D8181110EC01D
:1020400080E0DF91CF911F910F91FF90EF90DF9093
:10205000CF90BF90AF909F908F9008950B891C896F
:102060002D893E89041715072607370748F34A01CB
:102070005B01823031F48A869B86AC86BD8681E026
:10208000E0CF81149104A104B10449F41E821F829F
:10209000188619861A861B861C861D86F0CF0A852F
:1020A0001B852C853D85EB8DFC8D858590E0099603
:1020B000B901A8014150510961097109082E04C0F4
:1020C00076956795579547950A94D2F775016401FF
:1020D000E1E0CE1AD108E108F10804C0F694E794D3
:1020E000D794C7948A95D2F7C416D506E606F706A4
:1020F00020F0012B022B032B11F58F89988DA98DD0
:10210000BA8D8E839F83A887B9878E010A5F1F4F80
:10211000C114D104E104F10409F4ADCF4E815F8113
:102120006885798598018B8D9C8D0E94D00E91E0F9
:10213000C91AD108E108F1088111EACF81CFC41A88
:10214000D50AE60AF70AE1CF3F924F925F926F926B
:102150007F928F929F92AF92BF92CF92DF92EF9237
:10216000FF920F931F93CF93DF93CDB7DEB72C97DA
:102170000FB6F894DEBF0FBECDBF5C01DC015B96ED
:102180008D909C905C9716964D905D906D907C9094
:102190001997411451046104710409F468C0BFEF38
:1021A0004B1A5B0A6B0A7B0A312CF40181859285FC
:1021B000A385B4859C01AD012F5F3F4F4F4F5F4F0B
:1021C00029873A874B875C87730162011D821E82D3
:1021D0001F821886F40181859285A385B4852D819F
:1021E0003E814F815885281739074A075B0708F059
:1021F00056C089859A85AB85BC858C159D05AE0535
:10220000BF0550F482E0C82ED12CE12CF12C92E0D5
:10221000492E512C612C712C9E012F5F3F4FB7012D
:10222000A601C4010E94D00E8823C9F189819A8138
:10223000AB81BC81892B8A2B8B2B09F126013701BD
:102240009FEF491A590A690A790A2D813E814F8107
:1022500058852F5F3F4F4F4F5F4F2D833E834F83F6
:1022600058873FEFC31AD30AE30AF30AB3CFF40146
:1022700040805180628073803324339496CFC4149D
:10228000D504E604F70409F70FEF1FEF2FEF3FE047
:10229000B701A601C4010E942E0E811119C080E071
:1022A0002C960FB6F894DEBF0FBECDBFDF91CF9155
:1022B0001F910F91FF90EF90DF90CF90BF90AF9064
:1022C0009F908F907F906F905F904F903F90089578
:1022D000D50116964D915D916D917C91199741159F
:1022E00051056105710539F097018601C4010E940D
:1022F0002E0E8823A1F2D5011696CD92DD92ED9295
:10230000FC921997332051F0D701C6010196A11D07
:10231000B11DF40180839183A283B383F501878982
:10232000908DA18DB28D892B8A2B8B2B39F48481D2
:10233000C78AD08EE18EF28E80688483F501848115
:102340008062848381E0ACCF2F923F924F925F9264
:102350006F927F928F929F92AF92BF92CF92DF92B5
:10236000EF92FF920F931F93CF93DF9300D0CDB7DF
:10237000DEB7FC018581811118C08FEF9FEF0F90B0
:102380000F900F90DF91CF911F910F91FF90EF90E1
:10239000DF90CF90BF90AF909F908F907F906F9085
:1023A0005F904F903F902F900895848180FFE5CFFC
:1023B000438954896589768982859385A485B58505
:1023C000312C212C481759076A077B0719F0222462
:1023D0002394312C6F012101CE0101963C01DF01D4
:1023E0001696BB83AA834114510409F4C5C0F601B3
:1023F00042855385648575854A01F1E09F22D601A7
:102400005B968D919C915C978A019B01E9E03695E2
:10241000279517950795EA95D1F71596EC91E23037
:10242000E9F5FC01628D738D848D958D600F711FB0
:10243000821F931FA12C22E0B22EA818B9084A14BB
:102440005B0408F45201F601248126FD04C0A114A6
:10245000F2E0BF0671F40091020210910302209194
:10246000040230910502061717072807390709F0FB
:102470005EC040E00E94BB0C882309F47ECFC401FB
:10248000885E9A4FD3019C012A0D3B1DFC012E173B
:102490003F0709F46CC041914D93F9CFDC011496CC
:1024A000BC90BA94B0228114910479F4B1100DC09B
:1024B000452B462B472B69F5F6018789908DA18D19
:1024C000B28D86839783A087B187D6015B96ED9105
:1024D000FC915C9716966D917D918D919C911997C9
:1024E0006250710981099109258504C0660F771F23
:1024F000881F991F2A95D2F706851785208931896B
:10250000600F711F821F931F6B0D711D811D911D27
:1025100091CFD60116964D915D916D917C91199751
:102520002A813B810E94D00E8111CFCF26CF73012B
:1025300085019401AB01BC018091180790911907A6
:102540000E945C0B882309F418CF6A0C7B1CF601EF
:1025500082859385A485B5858A0D9B1DA11DB11D1E
:1025600082879387A487B5874A185B083CCF281BCE
:10257000390B620E731EEBCF2A94232809F0FDCE8F
:10258000898190E0FCCEFC01818D928D009711F045
:102590000C94A4118FEF9FEF08950F931F93CF9387
:1025A000DF93EC01898D9A8D10E000E0009799F09F
:1025B0000E94A4118C010F3F100769F0898D9A8D3C
:1025C000FC01428553856485758541505109610937
:1025D00071090E941010C801DF91CF911F910F91D6
:1025E00008951F93CF93DF93FC0125812223D1F11E
:1025F000162FEC01848187FF2AC066857785808944
:10260000918941E00E94BB0C882361F1EA8980E254
:10261000E89FF0011124E85EFA4F309719F18D819F
:10262000823040F48B899C89AD89BE89848F958FD7
:10263000A68FB78F8F89988D938F828F8F89988D72
:10264000A98DBA8DB58BA48B8C818F778C8311115A
:1026500003C08C818F7E8C83812FDF91CF911F915E
:102660000C94900C80E0DF91CF911F910895FF9220
:102670000F931F93CF93DF93EC018D81813041F055
:1026800090E080E0DF91CF911F910F91FF9008952E
:102690008C8181FFF5CF82FD1BC00091180710913E
:1026A0001907C8010E94E90A0E942E08F82EC801E5
:1026B0000E94DB0A8FEFF812E3CF8C8185FF1BC0ED
:1026C00060E0CE010E94F1128C818F7D8C83D8CF87
:1026D0004B895C896D897E898A859B85AC85BD85A2
:1026E00084179507A607B707C1F2CE010E94101004
:1026F0008111D3CFC5CF4091390450913A046091F4
:102700003B0470913C04452B462B472B21F080E085
:102710000E946C0CB5CF80618C832A853B8531701B
:1027200080E092E0821B930BADCFCF93DF93EC015F
:1027300061E00E94F112882311F01D8281E0DF9197
:10274000CF910895FC01818D928D009719F061E081
:102750000C94F11208952F923F924F925F926F92D4
:102760007F928F929F92AF92BF92CF92DF92EF9221
:10277000FF920F931F93CF93DF9300D01F921F926E
:10278000CDB7DEB77C015B01342E5D83DC0115968D
:102790008C911597813009F0CEC014962C9021FEB3
:1027A000CAC022FCB4C0C32CDD8022947FE0272263
:1027B0002094B22DB1702B2ED7011A964D915D91B8
:1027C0006D917C911D97C114D10409F428C15B96C9
:1027D0008D919C915C97FC0174807A948A019B0195
:1027E00069E036952795179507956A95D1F7702278
:1027F0008A011170711020C001151105E9F41696B7
:102800004D915D916D917C9119974115510561052F
:10281000710509F099C057968D919D910D90BC91CD
:10282000A02D0097A105B10509F0B0C0C7010E9415
:10283000A410882309F47FC080E092E0801B910BF4
:1028400046018C159D0508F44C01D7015B964D910E
:102850005C915C9716968D919D910D90BC91A02DE9
:102860000297A109B109FA01258504C0880F991FB3
:10287000AA1FBB1F2A95D2F74685578560897189A3
:10288000840F951FA61FB71F9C01AD01270D311D99
:10289000411D511D29013A01811432E0930609F0CE
:1028A0007BC08091020290910302A0910402B0913A
:1028B000050284159505A605B70559F48FEF9FEF1E
:1028C000DC018093020290930302A0930402B09370
:1028D0000502022D9501B301A20180911807909184
:1028E00019070E94FE0B882331F19EEFB91AC81810
:1028F000D908F70182859385A485B585880D991D32
:10290000A11DB11D82879387A487B58755CFF70195
:10291000438954896589768982859385A485B5859F
:10292000481759076A077B0709F43DCFC7010E9482
:102930001010811138CF81E090E0D70113969C935D
:102940008E93129780E007C09E012F5F3F4F0E9439
:10295000D00E811102C090E079C089819A81AB814B
:10296000BC81F701238D348DF901278948EF5FEF92
:1029700060E070E0203121F048EF5FEF6FEF7FE023
:1029800084179507A607B70708F050CFF70186838D
:102990009783A087B18750CF0115110599F5D7010D
:1029A0001A964D915D916D917C911D9753968D91E5
:1029B0009D910D90BC91A02D481759076A077B0780
:1029C00008F181E00E94900C882309F4B4CF409272
:1029D00002025092030260920402709205028091FA
:1029E0003804816080933804C801885E9A4FD5010D
:1029F0009C01280D391DFC012E173F0759F04D9100
:102A00004193FACF41E0C301B2010E94BB0C811196
:102A1000EBCF91CF281B390BA20EB31E68CFF70165
:102A200083899489A589B68984179507A607B7076E
:102A300038F48481438B548B658B768B80688483D8
:102A4000F701848183FD1AC0832D9D810F900F9023
:102A50000F900F900F90DF91CF911F910F91FF90EA
:102A6000EF90DF90CF90BF90AF909F908F907F902E
:102A70006F905F904F903F902F90089561E0C70155
:102A80000E94F112882309F456CFDECFCF93DF9353
:102A90001F92CDB7DEB7698341E050E0BE016F5FA2
:102AA0007F4F0E94AB130F90DF91CF910895CF938A
:102AB000DF93EC01E98DFA8D309749F481E090E0E5
:102AC0009B838A8390E080E0DF91CF910895138209
:102AD0001282898D9A8D0E94AB13E98DFA8D228125
:102AE0003381232B59F7F0CFCF93DF93EC018B8108
:102AF0008823A1F0888191E09093F40480931605D7
:102B00001092F5041092170581E00E945F0991E090
:102B1000811190E0892FDF91CF9108950E942709BC
:102B200081E08B83CE010E947415982F8111E2CF32
:102B3000F1CFFC01908190539A3008F090E08181B0
:102B400080532AE0929F800D11240895DC0150E00B
:102B5000E2EEF9E081E0861730F49491490F511DBF
:102B60008F5F3196F8CF633038F0CD0183709927AD
:102B7000892B11F44F5F5F4F9D012D5F3F4F3695BD
:102B80002795369527956DE671E0A69FC001A79F12
:102B9000900DB69F900D11240197820F931F840F03
:102BA000951F0895EF92FF920F931F93CF93DF939A
:102BB000EC0188814A81698190E00E94A6159C0100
:102BC000A8E1B0E00E94B23F2B817B018C01E20EB4
:102BD000F11C011D111DA8019701ACE3B0E00E949A
:102BE000A73F2C817B018C01E20EF11C011D111D00
:102BF000A80197010E94A73FAB01BC019D81892FCD
:102C000090E0B0E0A0E080589C4BA249B74C8A010C
:102C10009B01080F191F2A1F3B1FC901B801DF9133
:102C2000CF911F910F91FF90EF90089520911C0775
:102C300030911D072817390771F490911A07809178
:102C40001B07981741F0E0911A07F0E0EE54FC4F93
:102C5000808190E008958FEF9FEF0895EF92FF92AB
:102C60000F931F93CF93DF93DC015C96ED90FC9064
:102C70005D97E114F10479F481E090E013969C9360
:102C80008E93129790E080E0DF91CF911F910F918A
:102C9000FF90EF9008955196ED91FC9152975096C8
:102CA0008C915097982F90950FB75E962C915E97C8
:102CB000122F127021FD6095F8942081112319F1D3
:102CC000282B2083E7012197F1F728E0462F50E0D9
:102CD000308160FF1AC0382B3083E7012197F1F76C
:102CE000BA0175956795215089F7112381F080818C
:102CF000892380830FBF5C968D919C910197F1F79A
:102D000081E090E0C1CF2923DCCF3923E5CF90814A
:102D1000892BEFCF20911C0730911D072817390709
:102D200061F480911B0720911A0790E0805C9F4F0F
:102D3000821B91098F739927089590E080E0089590
:102D400020911C0730911D0728173907B9F490917D
:102D50001A0780911B07981789F0E0911A07F0E095
:102D6000EE54FC4F808120911A0730E02F5F3F4FD7
:102D70002F73332720931A0790E008958FEF9FEF6A
:102D8000089590E080E008956F3FA9F0E62FE29566
:102D9000EF7044E0E49F90011124DC01ED91FC917F
:102DA000E20FF31F6F7082819381B6E06B9F800DFD
:102DB000911D1124089590E080E00895BF92CF9274
:102DC000DF92EF92FF920F931F93CF93DF93FC015B
:102DD0006901EA01209709F47EC077FF06C084E00C
:102DE00084835183408381E077C08B011F77043057
:102DF0001105F8F4DA0190E0242F8A2F8C1B861736
:102E000030F48D9131E0811130E0932BF6CF9111A8
:102E100010C082E08483DF01842F821B861728F490
:102E2000EA018991AE018D93F7CFE60FF11D108273
:102E3000DACFB62E7F01D6011396ED91FC91980161
:102E40002C0F3D1F3097F9F083818017110671F424
:102E5000BE01CF0104966217730761F0DB015D913B
:102E6000BD01DC014D91CD015417A9F30190F08112
:102E7000E02DE8CF82818F5F828385E0E7018C833C
:102E8000F983E883B0CF0F3F110509F008F5B801C9
:102E90006B5F7F4F60177107D8F0F60180819181D9
:102EA000DC01ED91FC910190F081E02D1995FC0180
:102EB000892B71F0B38281E08283DF0114969E0139
:102EC000200F311FC217D30789F089918D93FACF54
:102ED00081E0E6018A8380E0DF91CF911F910F911D
:102EE000FF90EF90DF90CF90BF900895DF01A00F8B
:102EF000B11F14961C92D60113968D919C91149734
:102F0000918380831496FC93EE931397B6CFDC01E4
:102F100052969C915297915084E0989F9001112471
:102F20005096ED91FC91E20FF31F22813381211520
:102F3000310579F041818081481758F481E0840F90
:102F4000818386E0489F200D311D11242115310514
:102F500021F460E070E08FEF0895B901892F829528
:102F6000807F840F0895FC0180E092E0918380834C
:102F7000128214821382CF010596968B858B178A55
:102F800084E0808F8FEF818F168E878F0895AF92A8
:102F9000BF92CF92DF92EF92FF920F931F93CF9346
:102FA000DF93EC018B018C8180FF2CC0A881B9815B
:102FB000FB018381948130E020E0009719F1A8178C
:102FC000B90709F041C0F8014081518112969C91E6
:102FD0001297915012969C931297911113C08D9154
:102FE0009C9111972115310561F1F901918380833D
:102FF000FA0180819181FC0122813381BD01CA01E6
:10300000F90119958C81807631F1209721F1F880B2
:103010005801F5E1AF0EB11C8FEFF816D1F06F2D0E
:10302000C5010E94C4166C01FC01E580B8010E9434
:10303000C717F801818DF6018083F801F18EFE2C0F
:10304000EBCF94838383D4CF9C01FC018081918159
:10305000B4CFF882F9821C82DF91CF911F910F913A
:10306000FF90EF90DF90CF90BF90AF900895CF92F8
:10307000DF92EF92FF920F931F93CF93DF9300970E
:10308000A9F089016A017B01EC01B9010E94C7170F
:103090009801B701A601CE01DF91CF911F910F9149
:1030A000FF90EF90DF90CF900C94DE16DF91CF91E0
:1030B0001F910F91FF90EF90DF90CF900895AF9206
:1030C000BF92DF92EF92FF920F931F93CF93DF9304
:1030D000EC01088119816B817C816115710571F0AA
:1030E000DB018D919C919C838B83D801ED91FC91A8
:1030F0000280F381E02DC8011995EDCF5E01B5E0A6
:10310000AB0EB11CE880F980D12C6D897E898F8946
:10311000D816E0F4E4E0DE9E80011124060F171FAC
:10312000D80112966D917C916115710541F0D7011E
:10313000ED91FC910280F381E02DC7011995F80112
:103140001382128210821182D394DFCF1F8A8FEFF5
:10315000898FA616B70689F0D701ED91FC91028000
:10316000F381E02DC701DF91CF911F910F91FF9067
:10317000EF90DF90BF90AF901994DF91CF911F91A6
:103180000F91FF90EF90DF90BF90AF9008958F92D6
:103190009F92AF92BF92CF92DF92EF92FF920F93E6
:1031A0001F93CF93DF9300D000D01F921F92CDB713
:1031B000DEB70E94560600919E0910919F0920914A
:1031C000A0093091A109601B710B820B930B693C24
:1031D00071058105910508F4A3C10E9456068B0173
:1031E0009C0160939E0910939F098093A0093093DE
:1031F000A1091092A2091092A3091092A409109299
:10320000A50980918209898384E08A831B821C82BC
:103210001D828AE08E83DE0111969E01295F3F4F59
:103220004FEF5FEFBD01852F9927A217B30761F01C
:10323000ED91E427F0E0EE0FFF1FEE51F84F4591BE
:10324000549148275927EFCF4F83888780917D0974
:1032500090917E09DC01ED91FC910280F381E02DDB
:1032600048E050E0199580917F09882381F1E09131
:103270007D09F0917E09828D938D892B41F14091DA
:103280001C0750911D07E417F50709F14115510579
:1032900069F0DA0153962D913C91D9019C91DA01A4
:1032A00055968C9180958923D9018C93868D8E7F3C
:1032B000868F10921B0710921A07F0931D07E09358
:1032C0001C07A389B4898C919589892B8C930E94C2
:1032D00056064B015C01BEE1EB2EB7E0FB2E670109
:1032E00010E000E009311105D9F4C80102979801F6
:1032F0006FEF7FEF215031092130310509F442C0D1
:10330000D701ED917D01472F5527E627F0E0EE0F1D
:10331000FF1FEE51F84F6591749164277527EACF2E
:103320000E945606681979098A099B096436710555
:1033300081059105F8F480917D0990917E09DC0169
:10334000ED91FC910084F185E02D19951816190670
:103350004CF680917D0990917E09DC01ED91FC9104
:103360000284F385E02D1995F60181936F010F5FBB
:103370001F4FB8CF0330110508F0B7CF1092830963
:1033800080E0CFC0F801E35EF84F2081825E984F65
:10339000FC018081922F8617970781F781E0809347
:1033A00083090931110561F76091210770912207A6
:1033B00076276727762790E080E00E94853E20E010
:1033C00030E040E251E40E942E4060938409709303
:1033D000850980938609909387092091230760913E
:1033E000250770E090E080E0962F882777276627F2
:1033F000722B20912407622B20912607822B0E949A
:10340000853E20E030E04AE754E40E942E4060937D
:1034100088097093890980938A0990938B09209178
:1034200027076091290770E090E080E0962F8827B9
:1034300077276627722B20912807622B20912A0775
:10344000822B0E94853E20E030E040E251E40E9461
:103450002E4060938C0970938D0980938E09909310
:103460008F0920912B0760912D0770E090E080E09C
:10347000962F882777276627722B20912C07622B9F
:1034800020912E07822B0E94853E20E030E04AE703
:1034900054E40E942E4060939009709391098093A8
:1034A00092099093930960912F07709130077627C6
:1034B0006727762790E080E00E94853E20E030E09C
:1034C00040E251E40E942E40609394097093950964
:1034D0008093960990939709609131077091320714
:1034E00076276727762790E080E00E94853E20E0DF
:1034F00030E048EC52E40E942E40609398097093AB
:10350000990980939A0990939B0980913307909130
:10351000340798278927982790939D0980939C09C1
:1035200081E028960FB6F894DEBF0FBECDBFDF91C5
:10353000CF911F910F91FF90EF90DF90CF90BF90B0
:10354000AF909F908F9008951F93CF93DF93DC01EE
:103550001496ED91FC91E417F50710F490E01FC06C
:10356000122FEA01FC0181819281208131E03093A8
:10357000F404209316051092F50410921705DC014F
:10358000ED91FC910280F381E02D1995C817D907C0
:1035900029F7812F0E945F0991E08111DFCF892FE8
:1035A000DF91CF911F9108952F923F924F925F929A
:1035B0006F927F928F929F92AF92BF92CF92DF9243
:1035C000EF92FF920F931F93CF93DF935C011B0148
:1035D0006A01F12CE12CD50114968D919C91860104
:1035E0000E191F098017910708F48C01F501D0818D
:1035F0000E9431062B013C018091EE04811172C0C2
:10360000C02F013208F0C0E2F1E0F093EE0421E0B7
:10361000C601801B910BE816F90608F420E0209300
:10362000ED048FEF8093EC041092EB048C0F8093E9
:10363000EA04A1E0A093C9048091C904DD0FD82B4E
:10364000D093C9048091C804813009F090C01092D1
:10365000C8040E9431062B013C018091C90480936B
:10366000BB008091F0049091F104A091F204B0911C
:10367000F304892B8A2B8B2BA1F00E943106209119
:10368000F0043091F1044091F2045091F304641974
:10369000750986099709261737074807590708F457
:1036A00042C08091BC0083FDD8CFB5ECB093BC0084
:1036B0000E9431062B013C018091EE04813009F417
:1036C0005AC08091EB048C1710F4C091EB04AAEC63
:1036D000B4E0E8EAF4E080E08C1751F19D91919319
:1036E0008F5FFACF8091F0049091F104A091F204E1
:1036F000B091F304892B8A2B8B2B09F47DCF0E9488
:1037000031062091F0043091F1044091F20450917F
:10371000F3046419750986099709261737074807BE
:10372000590708F069CF8091EF040E943E09C0E07C
:103730001092A704C093A604C017110609F057C041
:1037400041018E0C9F1CE401CE0188199909801754
:10375000910798F5D50111968D919C91DC01ED9121
:10376000FC910284F385E02D19958993EDCFE5EE68
:10377000E093BC009DCF8091F0049091F104A09162
:10378000F204B091F304892B8A2B8B2B09F494CF8C
:103790000E9431062091F0043091F1044091F2042E
:1037A0005091F3046419750986099709261737079C
:1037B0004807590708F080CFB6CFE00EF11EEC1491
:1037C000FD0408F408CF81E0DF91CF911F910F91A4
:1037D000FF90EF90DF90CF90BF90AF909F908F9031
:1037E0007F906F905F904F903F902F90089580E072
:1037F000EBCFCF93DF931F921F92CDB7DEB78FE051
:103800008A8321E041E050E0BE016E5F7F4F8091EE
:10381000A4049091A5040E94A41A41E050E0BE01C6
:103820006F5F7F4F8091A4049091A5040E94D41AE9
:1038300089810F900F90DF91CF910895EF92FF92C1
:103840000F931F93CF93DF9300D000D01F92CDB77B
:10385000DEB78C011982E090A404F090A50420E06A
:1038600041E050E0BE016F5F7F4FC7010E94A41A84
:10387000882341F047E050E0BE016F5F7F4FC701F2
:103880000E94D41AE981EF77FA81FB805D814E8135
:103890004F778F81282F30E094E0359527959A95C2
:1038A000E1F7922F990F990F291B220F280FD801AA
:1038B0002C93842F90E024E0959587952A95E1F745
:1038C000982F990F990F891B880F840F11968C934D
:1038D0001197652F70E034E0759567953A95E1F79B
:1038E000862F880F880F681B660F650F12966C93E2
:1038F00012974F2D50E064E0559547956A95E1F792
:10390000842F880F880F481B440F4F0D13964C933C
:1039100013972F2F30E074E0359527957A95E1F7CE
:10392000822F880F880F281B220F2F0F14962C939D
:1039300014978E2F90E0F4E095958795FA95E1F72E
:10394000982F990F990F891B880F8E0F15968C93BE
:10395000C80127960FB6F894DEBF0FBECDBFDF912A
:10396000CF911F910F91FF90EF900895CF92DF922A
:10397000EF92FF921F93CF93DF93EC0180E2689F59
:10398000F0011124E85EFA4F9385917161F0842F64
:10399000827449F080E0DF91CF911F91FF90EF900A
:1039A000DF90CF900895142F6A8B8091020290913E
:1039B0000302A0910402B09105028E879F87A88B15
:1039C000B98BC488D588F12CE12C7601DD24CC2478
:1039D000CF8AD88EE98EFA8E828D938DB0E0A0E0EA
:1039E000AC01BD014C295D296E297F294F8B588F71
:1039F000698F7A8F83858871B1F4848D958DA68DBA
:103A0000B78D8B8B9C8BAD8BBE8B81E08D831F70B4
:103A10001C831E821F82188619861A861B861C86A6
:103A20001D8681E0B8CF803109F0B4CF9E012D5EB4
:103A30003F4F8B8D9C8D0E94510F882309F4AACF94
:103A400084E0E4CFCF93DF93EC01888199810097E4
:103A500011F00E94DE41198218821D821C821B8295
:103A60001A82DF91CF910895FC01808191810097A6
:103A700011F00C94DE410895CB010C94DE410F93BC
:103A80001F93CF93DF938C01EB01FC018081918127
:103A90000097E1F06881798161157105A9F0428193
:103AA00053812C813D814217530770F00E947A4365
:103AB0008C819D81F801958384831D821C82DF9116
:103AC000CF911F910F9108950E94DE4188819981C5
:103AD000F801918380838A819B81938382838C8187
:103AE0009D8195838483198218821B821A82E5CF77
:103AF000BF92CF92DF92EF92FF920F931F93CF93DB
:103B0000DF93EC01198D1F3F81F0612F45960E94D4
:103B1000C416FC018081898F309709F477C0148224
:103B20008FEF8583BF01812F76C06C0135E0C30E16
:103B3000D11CE880F9808F89882341F0C6010E945A
:103B40008717E62FF72F182F309749F71F89988D81
:103B5000191324C0103109F459C0110F6D897E89E1
:103B6000D701ED91FC91B4E01B9FA0011124C61672
:103B7000D70609F044C00190F081E02DBA01C701D9
:103B80001995009709F442C020E1F601DC0101908B
:103B90000D922A95E1F79E8B8D8B188F0D891E89CA
:103BA0008F8921E0280F2F8BE4E08E9FC001112424
:103BB000080F191F90E1B92E203111F48FE0B82EB3
:103BC000F6E0BF9EB0011124D701ED91FC91019068
:103BD000F081E02DC7011995F80193838283892B29
:103BE00009F4B12CD801BC9211961C92012B71F0F2
:103BF000C6010E948717E62FF72F182F8DCF04805C
:103C0000F581E02DC7011995009729F681E08A8397
:103C100060E070E08FEFDF91CF911F910F91FF90E7
:103C2000EF90DF90CF90BF900895EF92FF920F93A7
:103C30001F93CF93DF93EC017B018A011B821A82D1
:103C400088EE93E0A0E0B0E08C839D83AE83BF83D9
:103C50008CE292E0998388838DE190E00E9442415A
:103C60009A8F898F009779F02DE1F701DC0101909F
:103C70000D922A95E1F74CE050E0B801CE010C9688
:103C80000E948F43188EDF91CF911F910F91FF906B
:103C9000EF900895CB010C944241FB01019000206C
:103CA000E9F73197AF01461B570BDC01ED91FC9111
:103CB0000280F381E02D19948F929F92AF92BF9270
:103CC000EF92FF920F931F93CF93DF93CDB7DEB7A1
:103CD000A1970FB6F894DEBF0FBECDBF7C01FA01ED
:103CE000CB0119A2223008F42AE08E010F5D1F4F8C
:103CF000822E912CB12CA12CBF01A50194010E9410
:103D0000F940F901CA016A300CF5605DD8016E9383
:103D10008D01232B242B252B79F790E080E0109741
:103D200021F0BD01C7010E944D1EA1960FB6F89467
:103D3000DEBF0FBECDBFDF91CF911F910F91FF90DE
:103D4000EF90BF90AF909F908F900895695CDECF09
:103D5000482F50E070E060E02AE084ED97E00C949A
:103D60005C1ECF92DF92EF92FF920F931F93CF933F
:103D7000DF936B01770FEE08FF08F7FE1BC0EC0125
:103D80006DE20E9463068C0144275527BA014C1945
:103D90005D096E097F092AE0CE010E945C1E800F3A
:103DA000911FDF91CF911F910F91FF90EF90DF90C6
:103DB000CF9008952AE0B701A601DF91CF911F911E
:103DC0000F91FF90EF90DF90CF900C945C1E2F929C
:103DD0003F924F925F926F927F928F929F92AF929B
:103DE000BF92CF92DF92EF92FF921F93CF93DF9318
:103DF000EC016A017B01722EAB019601CB01B60189
:103E00000E94D4406AE672E0811126C04601570143
:103E1000E894B7F82FEF3FEF4FE75FE7C501B40134
:103E20000E94D44081110CC02FEF3FEF4FE75FE7B6
:103E3000C501B4010E94803E6EE672E0181664F07F
:103E40002FEF3FEF4FE75FE4C701B6010E94CF407D
:103E50001816B4F462E772E0CE01DF91CF911F91A2
:103E6000FF90EF90DF90CF90BF90AF909F908F909A
:103E70007F906F905F904F903F902F900C944D1ECD
:103E80002FEF3FEF4FE75FECC701B6010E94803E86
:103E900087FDE0CF20E030E0A901C701B6010E9414
:103EA000803E312C212C87FF09C06DE2CE010E949B
:103EB00063061C01F7FAF094F7F8F09410E060E064
:103EC00070E080E09FE3711641F020E030E040E2D6
:103ED00051E40E942E401F5FF6CFA70196010E9479
:103EE000C23F2B013C010E94A0404B015C012AE033
:103EF000BC01A401CE010E945C1E7C01E20CF31CFB
:103F00001123C1F1C501B4010E94853E9B01AC01A2
:103F1000C301B2010E94C13F4B015C016EE2CE01C0
:103F20000E946306E80EF91E115020F120E030E0F7
:103F300040E251E4C501B4010E94E63E2B013C0180
:103F40000E94A0404B01B12CA12C2AE0B501A40194
:103F5000CE010E945C1EE80EF91EC501B4010E944C
:103F6000853E9B01AC01C301B2010E94C13F4B01E0
:103F70005C01DACFC701DF91CF911F91FF90EF90E5
:103F8000DF90CF90BF90AF909F908F907F906F9079
:103F90005F904F903F902F9008950F931F93CF9372
:103FA000DF93EC010E94E71E8C0166E772E0CE0110
:103FB0000E944D1E800F911FDF91CF911F910F9195
:103FC00008950F931F93CF93DF93EC010E944D1E32
:103FD0008C0166E772E0CE010E944D1E800F911F9A
:103FE000DF91CF911F910F9108950F931F93CF935E
:103FF000DF93EC010E946A068C0166E772E0CE0155
:104000000E944D1E800F911FDF91CF911F910F9144
:1040100008950F931F93CF93DF93EC010E947806CE
:104020008C0166E772E0CE010E944D1E800F911F49
:10403000DF91CF911F910F91089569E772E087E3B7
:1040400097E00E94E11F61EA72E084ED97E00C9432
:1040500009201F93CF93DF9310916604112339F049
:1040600040916704509168044115510541F466E898
:1040700072E084ED97E00E94092010E062C0FC012C
:104080002381848190E0FCE32F9F800D911D1124FA
:10409000EEE3F4E0D0E0C0E06CE3C417D5076CF7C2
:1040A0007081218130E0769F200D311D112482170F
:1040B00093070CF44BC07281238130E0769F200D72
:1040C000311D1124821793070CF040C065E772E0A0
:1040D00084ED97E00E947806BE0184ED97E00E948F
:1040E000B11E62E772E084ED97E00E947806CC0F83
:1040F000DD1FCC0FDD1FC25CDB4F88810E94A81E34
:1041000069E673E084ED97E00E944D1E89810E946C
:10411000A81E6EE672E084ED97E00E9478068A8120
:104120000E94A81E69E673E084ED97E00E944D1E90
:104130008B810E94A81E66E772E084ED97E00E94E2
:104140004D1E812FDF91CF911F91089521963496B6
:10415000A4CFFC0130E020E06115710549F0DB01DE
:104160000D900020E9F79D0121503109261B370BE6
:10417000718360832283832F8F7793819078982B2C
:1041800040FB97F9938308954F925F926F927F92CD
:104190008F929F92AF92BF92CF92DF92EF92FF9257
:1041A0000F931F93CF93DF9300D01F92CDB7DEB74D
:1041B000FC0100811181063E8FEF1807C9F4F12C34
:1041C000E12CB701C8010F900F900F900F90DF9175
:1041D000CF911F910F91FF90EF90DF90CF90BF9004
:1041E000AF909F908F907F906F905F904F900895C9
:1041F00084809580E280F380E114F10401F3F801FA
:10420000868D811174C080E2868F8FEF828F838FBD
:104210003701582C492C5801F5E1AF0EB11CF801BB
:10422000628DC5010E94C416FC01DD24DA94892B3D
:1042300009F0D580CC24C394309779F1CC2009F4CF
:104240007AC08481843009F456C0853009F461C095
:10425000823009F066C040E0BF01CE0101960E94A5
:10426000A920A981BA818B814C81942F9F77452DFC
:10427000542D5F774817590709F05DC0F7018E0D7F
:104280009F1DE817F90709F051C06D2DC5010E9467
:10429000C4167C01892B09F094CFC8010E94781DB7
:1042A000482E6B01672B09F48ACFC8010E94781D44
:1042B000582E962FE92EF72EE114F10409F47FCF42
:1042C0009801A301B401C6010E94DE16882309F4F7
:1042D00076CFF6015582F801638D6F3FC1F1C501BC
:1042E0000E94C416FC014582F801538E6ACF8032C9
:1042F00009F48ECF64CF6081718141E0CE010196D7
:104300000E94A9204C8199818A81A92FB82F8B8185
:10431000ACCF0190F081E02DDF011496838190E015
:10432000A6CF90E080E0B0E0A0E0A1CF31912D9148
:10433000321709F4A6CF81E0C8266D2DC5010E9471
:10434000C416FC01892B09F477CFD58075CF428E36
:10435000CCCFCF93DF93EC010E94C420DC01CB01D2
:104360006091DE087091DF087F774091DA08509104
:10437000DB087F777F779D010E943718E881F981FC
:1043800080E0309719F0828191E08927DF91CF9109
:1043900008950F931F93CF93DF93EC018B010E943D
:1043A000C420DC01CB0170E070689D01A80164E0CD
:1043B0000E943718E881F98180E0309719F08281F6
:1043C00091E08927DF91CF911F910F9108950F936D
:1043D0001F93CF93DF938B010E94C420DC01CB019C
:1043E000EB01009771F0F8011081BD010E94C71721
:1043F00086E08C83188381E0DF91CF911F910F912C
:10440000089580E0F9CFCF92DF92EF92FF92CF93A1
:10441000DF937B010E94C420DC01CB01EB010097FC
:10442000B1F0F701C080D180E280F380BD010E942D
:10443000C7178EE08C83C882D982EA82FB8281E032
:10444000DF91CF91FF90EF90DF90CF90089580E0C3
:10445000F7CFFC0124813581232B39F421E0FB01C6
:104460008081882349F020E007C0808191810E94EB
:10447000714321E0892BB9F7822F08950F931F9381
:10448000CF938C01C62FCA0120916904222389F0A1
:1044900063ED72E00E942922882359F0C1116DC09A
:1044A00062E272E084ED97E0CF911F910F910C943E
:1044B00009200230110539F10330110509F440C01B
:1044C0006C2FC093760482E00E94D2056AE172E00C
:1044D00084ED97E00E94780661E972E0C11102C0A4
:1044E0006DE972E084ED97E00E94E11F68E872E0F8
:1044F000C11102C064E972E087E397E0CF911F9198
:104500000F910C94E11FC09375046C2F83E00E94FF
:10451000D20562E172E084ED97E00E94780661E9DD
:1045200072E0C11102C06DE972E084ED97E00E9473
:10453000E11F61EA72E0C111DFCF6DEA72E0DCCF0A
:10454000C09374046C2F84E00E94D2056AE072E08C
:1045500084ED97E00E94780661E972E0C11102C023
:104560006DE972E084ED97E00E94E11F6AEB72E072
:10457000C111C2CF66EC72E0BFCF0230110519F253
:1045800003301105E9F281E08093760461E09BCF6E
:104590000F931F93CF93DF93EC018881998100974C
:1045A00059F02A813B812617370730F081E0DF91EF
:1045B000CF911F910F9108958B016F5F7F4F0E94E4
:1045C0006742009759F0998388831B830A832C8163
:1045D0003D81232B59F7FC011082E8CF80E0E7CF23
:1045E000CF92DF92EF92FF920F931F93CF93DF93BF
:1045F0008C01DC019296ED91FC91E80FF91F12827B
:104600006C01B2E0CB0ED11CC114D10449F1F6010A
:1046100001900020E9F73197EC19FD09F1F0DC0178
:10462000ED90FC90D7011496CD91DC91CE0FDF1F59
:10463000BE01C7010E94C822882391F0F7012081A2
:10464000318184819581B601820F931F0E947A4344
:10465000D7011596DC93CE931497F80113A212A2FA
:10466000D80192968D919C91DF91CF911F910F91DE
:10467000FF90EF90DF90CF9008951F93CF93DF933B
:10468000EC01162F8AA19BA101968097B8F48AA10C
:104690009BA19C012F5F3F4F3BA32AA38C0F9D1F23
:1046A000FC01128321E030E08CA19DA1820F931FB9
:1046B0009DA38CA3DF91CF911F910895CE010E94FD
:1046C000F022892B21F330E020E0EECFBF92CF9291
:1046D000DF92EF92FF920F931F93CF93DF93EC0142
:1046E0006A018B017B01E40EF51EE016F106D1F0A4
:1046F000F801B1908F018AA19BA10196809760F487
:104700008AA19BA19C012F5F3F4F3BA32AA38C0F43
:104710009D1FFC01B282E9CFCE010E94F022892BBD
:1047200079F3E3CF4CA15DA14C0D5D1D5DA34CA3BE
:10473000DF91CF911F910F91FF90EF90DF90CF907D
:10474000BF9008958F929F92AF92BF92CF92DF92C7
:10475000EF92FF920F931F93CF93DF93CDB7DEB706
:1047600066970FB6F894DEBF0FBECDBF6C018E0109
:10477000095E1F4F78018AE0882E912CA12CB12C64
:10478000CB01BA01A50194010E94F940942F852F15
:10479000605DF80162938F01A901692F782F41159F
:1047A00051056105710561F7A7014E1B5F0BBF0144
:1047B000C6010E94662366960FB6F894DEBF0FBE50
:1047C000CDBFDF91CF911F910F91FF90EF90DF90C0
:1047D000CF90BF90AF909F908F900895FB01019074
:1047E0000020E9F73197AF01461B570B0C94662365
:1047F000CF92DF92EF92FF920F931F93CF93DF93AD
:104800008C016B017A0162E20E943D23E601EC0C0F
:10481000FD1CEC16FD0699F06991EAEDF2E0D480FA
:10482000DD20C9F0329683816813F9CF6CE5C801A9
:104830000E943D236D2DC8010E943D23EACF62E214
:10484000C801DF91CF911F910F91FF90EF90DF9002
:10485000CF900C943D236111EECF6DEE72E0C80154
:104860000E94EE23D6CF2F923F924F925F926F928B
:104870007F928F929F92AF92BF92CF92DF92EF92F0
:10488000FF920F931F93CF93DF93CDB7DEB76B9754
:104890000FB6F894DEBF0FBECDBF7C018B01DC01EB
:1048A00014968C911497863009F4A3C2F8F48330DF
:1048B00009F492C258F440E0B701823009F47BC297
:1048C00064EF72E0C8010E94EE2381C2843009F4D3
:1048D0006EC28530A9F7ED91FC91438150E0BF0194
:1048E0006C5F7F4FC8010E94F8231CC28E3009F410
:1048F00043C0E0F48A3009F477C28C3009F7CD90D8
:10490000DD90ED90FC90B701A601F7FE0BC06DE2C3
:10491000C8010E943D2344275527BA014C195D095F
:104920006E097F09C8010E94A223FCC1803209F4EC
:1049300015C2803429F66BE5C8010E943D23D701DA
:10494000FC90BFEFFB1609F4E9C1F80186A197A11D
:104950006F2D45960E94C4167C01B8010E94332435
:10496000D7011596FC90BFEFFB1609F4D7C16CE296
:10497000C8010E943D23E5CFF70180809180A2808D
:10498000B380A5019401C501B4010E94803E882333
:1049900031F064EF72E0C8010E94EE23C3C120E051
:1049A00030E0A901C501B4010E94803E882371F066
:1049B000A5019401C501B4010E94C23F9B01AC0155
:1049C000C501B4010E94803E882319F320E030E045
:1049D000A901C501B4010E94803E87FF08C06DE2B5
:1049E000C8010E943D23B7FAB094B7F8B09420E80C
:1049F00036E948E15BE4C501B4010E94CF4087FD80
:104A000083C074E1C72ED12CE0E2EE2EF12C312CC4
:104A1000212CF601E653F84F65917591859194919B
:104A2000A50194010E94803E18167CF0F601EE5418
:104A3000F84F2591359145915491C501B4010E94DB
:104A4000E63E4B015C012E0C3F1CF594E794F4E02C
:104A5000CF1AD1082CEFC2162FEFD206D1F63FEFB6
:104A60003F8B20E030E0A901C501B4010E94CF4096
:104A700018160CF051C02CEA35EC47E257E3C5019B
:104A8000B4010E94803E18160CF446C0AF89B4E011
:104A9000AB02C0011124D12CC12CFC01EE54F84F03
:104AA0002F019C012653384F39013F893F3F09F4BC
:104AB00033C0F201EC0DFD1D6591759185919491C6
:104AC00020E030E040E251E40E94E63EA50194017E
:104AD0000E94CF4018167CF4F301EC0DFD1D2591CA
:104AE000359145915491C501B4010E94E63E4B01B8
:104AF0005C012E183F08F594E7948F8981508F8BC5
:104B000094E0C91AD108D1CF50E2E52EF12C85E00E
:104B10008F8B312C212CA5CFC501B4010E94A04060
:104B20006B017C012B013C0180E492E4AFE0B0E03A
:104B3000888F998FAA8FBB8F96E09F8BAAE04A1629
:104B4000510461047104E0F0688D798D8A8D9B8D2C
:104B50002AE030E040E050E00E94F940288F398F91
:104B60004A8F5B8FBF89B150BF8BC301B2012AE06E
:104B700030E040E050E00E94F94029013A01DECFE8
:104B8000C701B6010E94853E9B01AC01C501B4017D
:104B90000E94C13F4B015C01688D798D8A8D9B8D90
:104BA0000E94853E9B01AC01C501B4010E94E63E16
:104BB0002B013C010E94A0404B015C010E94853EFC
:104BC0009B01AC01C301B2010E94C13F9B01AC013A
:104BD0000E94C23F0E94A040860E971EA81EB91ECA
:104BE000888D998DAA8DBB8D88169906AA06BB065D
:104BF000C0F09FEFC91AD90AE90AF90A2114310451
:104C000039F1AAE0CA16D104E104F10408F1BFEFBA
:104C10002B1A3B0A812C912C5401C12CD12C7601EA
:104C2000C3942AE0422E512C612C712CC501B40191
:104C3000A30192010E94F940672B682B692B61F454
:104C4000EF891E164CF449015A01E150EF8BEECF6B
:104C5000812C912C5401E5CFB701A601C8010E9417
:104C6000A223FF89FF2391F16E0121E1C20ED11C25
:104C7000F88F76019AE0492E512C612C712C388DD9
:104C80003150388F3F3F69F0C501B401A301920153
:104C90000E94F940605DD6016E936D0149015A0191
:104CA000EECFBF898B2F90E0BC0160957095F70126
:104CB000E81BF90B31978EE2808344275527461B6A
:104CC000570B6E0D7F1DC8010E946623211431040D
:104CD00049F165E6C8010E943D23710137FE07C016
:104CE0006DE2C8010E943D23F194E194F108FE01B8
:104CF00077969F018AE0C82ED12CC701B6010E9489
:104D0000E540805D82937B01672BB9F7A9014E1BBB
:104D10005F0BBF01C8010E94662304C06DE5C80196
:104D20000E943D23F80184A195A16B960FB6F894DB
:104D3000DEBF0FBECDBFDF91CF911F910F91FF90CE
:104D4000EF90DF90CF90BF90AF909F908F907F902B
:104D50006F905F904F903F902F9008956BE7C80140
:104D60000E943D23D701FC90EE24E394BB24B3942E
:104D7000BFEFFB16D1F0F80186A197A16F2D4596E4
:104D80000E94C4166C01B8010E943324D601159606
:104D9000FC90BFEFFB1639F06AE3E11001C06CE252
:104DA000C8010E943D23EB24E3CF6DE7B8CFF701A4
:104DB0006081718141E0CE0101960E94A9204B8162
:104DC0005C815F7769817A81C8010E94F823D801EC
:104DD00094968D919C91A9CFED91FC91438150E0E7
:104DE000BF016C5F7F4F96CF4D915D916D917C912E
:104DF00099CD8C9169EF72E08111CDCD6EEF72E0AB
:104E0000CACDCF92DF92EF92FF920F931F93CF9371
:104E1000DF93CDB7DEB7C85BD1090FB6F894DEBF1C
:104E20000FBECDBF6B017C01CA01CB56DF4F59834A
:104E30004883C559D040C954DF4F19821882C75BD7
:104E4000D0400E94221D84E2FE01EB56FF4FDE019E
:104E5000AF58BF4F01900D928A95E1F784E2FE01B1
:104E6000EF58FF4FDE01A35BBF4F01900D928A9573
:104E7000E1F784E2FE01E35BFF4FDE0199960190CA
:104E80000D928A95E1F784E2FE01B996DE01119652
:104E900001900D928A95E1F71EA21DA2CE0189967E
:104EA0000E94F022F8A6EFA2CE01835B9F4F0E94E2
:104EB000F022C114D10431F1BE016F5F7F4FC601F2
:104EC0000E9433247C01CE0101960E94F022CE0183
:104ED0008F589F4F0E94F022CE018B569F4F0E9409
:104EE000F022C701C854DF4F0FB6F894DEBF0FBEE3
:104EF000CDBFDF91CF911F910F91FF90EF90DF9089
:104F0000CF90089564EF72E0CE0101960E94EE23E7
:104F1000EDA0FEA0D8CFEF92FF920F931F93CF93F7
:104F2000DF93EC017B018A01BA010E94C822811142
:104F30000BC0CE010E94221DCE01DF91CF911F91A7
:104F40000F91FF90EF9008951D830C83B701888126
:104F500099810E947A43F0CFFB0101900020E9F78C
:104F60003197AF01461B570B0C948B2710926904A5
:104F700063ED72E08AED98E00E94AC2768ED71E085
:104F800084ED97E00C940920FB01DC0111961C9242
:104F90001E9213961C921E92129715961C921E92A8
:104FA00014978617970749F0608171816115710523
:104FB00021F0448155810C948B270895EF92FF9244
:104FC0001F93CF93DF9300D000D0CDB7DEB7182F5B
:104FD0007B01CE0101960E94C427AE014F5F5F4F57
:104FE000612F81E090E00E943E22CE0101960E9456
:104FF000341DB701CE0101960E94C427AE014F5F58
:105000005F4F612F82E090E00E943E22CE01019628
:105010000E94341DB701CE0101960E94C427AE0143
:105020004F5F5F4F612F83E090E00E943E22CE01F0
:1050300001960E94341D6FE073E0112311F064E0CB
:1050400073E087E397E00E94E11F26960FB6F8947D
:10505000DEBF0FBECDBFDF91CF911F91FF90EF90CC
:105060000895FC011182108213821282158214822B
:10507000FB0101900020E9F73197AF01461B570B68
:105080000C948B27FF920F931F93CF93DF93CDB791
:10509000DEB7A6970FB6F894DEBF0FBECDBF8E0168
:1050A0000F5F1F4FC8010E94B3171AA309A38BE11A
:1050B00093E09CA38BA384E0F82EFDA28EA18078C0
:1050C00080688EA360E273E0CE0181960E94C921C0
:1050D0001AA309A385E293E09CA38BA3FDA28EA152
:1050E000807880688EA366E774E0CE0181960E9486
:1050F000E7211AA309A38AE293E09CA38BA3FDA254
:105100008EA1807880688EA365E774E0CE018196D9
:105110000E94E7211AA309A38FE293E09CA38BA32B
:10512000FDA28EA1807880688EA364E774E0CE0132
:1051300081960E94E7211AA309A384E393E09CA32C
:105140008BA3FDA28EA1807880688EA3CE0181966C
:105150000E94A9211AA309A389E393E09CA38BA32E
:1051600083E08DA38EA1807880688EA363E774E0CE
:10517000CE0181960E94E7216CEE72E0CE0181960D
:105180000E943128BE01655E7F4FC801AE014F5DB0
:105190005F4F0E940127BE016F5D7F4F87E397E05D
:1051A0000E94F51F66E672E084ED97E00E947806A3
:1051B000BE016F5D7F4F84ED97E00E94F51FCE0129
:1051C00081960E94341DC8010E945F18A6960FB6F2
:1051D000F894DEBF0FBECDBFDF91CF911F910F912D
:1051E000FF900895CB01BA010C9467423F924F9211
:1051F0005F926F927F928F929F92AF92BF92CF9267
:10520000DF92EF92FF920F931F93CF93DF9300D023
:1052100000D000D01F921F92CDB7DEB77C01FE01F7
:105220003196CE010C966F0130E23193E817F90701
:10523000E1F7DA0130E087E09D91B92E992309F476
:105240003CC09E32F1F48A30C9F480E02B960FB650
:10525000F894DEBF0FBECDBFDF91CF911F910F91AC
:10526000FF90EF90DF90CF90BF90AF909F908F9086
:105270007F906F905F904F903F90089538E08AE064
:10528000DBCFE2EDF2E04491442321F03196941318
:10529000FACFDBCF8317C8F24FED490F4E35A8F692
:1052A0004FE9490F4A3118F440EEB42EB90EF60119
:1052B000E30FF11DB0823F5FBFCF8981803229F2B9
:1052C000322E8B01DB015B968D919C915C97F701EF
:1052D000948F838F16961D921D921D921C92199782
:1052E000FB011286138614861586F8018285938544
:1052F000A485B5854389548965897689841795077E
:10530000A607B70708F04DC025E0B695A795979575
:1053100087952A95D1F7F82FFF70AF2ED8011596F3
:105320008C91823008F491CFC8010E94A41197FD9E
:105330008CCFF80182859385A485B5854F96A11DF4
:10534000B11D82879387A487B587F0E2AF9EB00135
:105350001124685E7A4F6115710509F476CFDB017F
:105360008C91882341F0853E09F062C0BB2029F072
:10537000BB24B394BACFB1100EC0F701A28A8091BA
:10538000020290910302A0910402B0910502868767
:105390009787A08BB18BDB018C918111E9CFBB2466
:1053A000B394832D8271823109F04FCFBB2009F471
:1053B0004DC0F701668577858089918941E00E941B
:1053C000BB0C882309F441CFD70152968C91B0E2EF
:1053D0008B9FC0011124885E9A4F009709F435CF46
:1053E000FC013A9626E1DF011D922A95E9F72BE0B0
:1053F000F601DC0101900D922A95E1F721E238E2F5
:10540000FC01318B208B40E058E057874687338B77
:10541000228B318F208F578B468B81E00E94900C1E
:10542000882309F412CF432DD70152966C910AC0FC
:105430004BE050E0C6010E945043892B09F055CF44
:10544000432D6A2DC7010E94B61C00CFF80185814B
:10545000823009F4FACEC8010E94A410882309F40E
:10546000F4CED8015B96ED91FC915C9716968D90E9
:105470009D90AD90BC901997B2E08B1A9108A1084D
:10548000B108858504C0880C991CAA1CBB1C8A9590
:10549000D2F786859785A089B189880E991EAA1EA4
:1054A000BB1E848124013501480E511C611C711CF6
:1054B00084149504A604B70409F1E1E04E1A5108DA
:1054C0006108710881E00E94900C882309F4BDCE28
:1054D000E8E1F5E0119288E197E08E179F07D1F798
:1054E00040920202509203026092040270920502FE
:1054F00080913804816080933804DACFD8015B96BC
:10550000ED91FC91258580E092E0A0E0B0E004C040
:10551000880F991FAA1FBB1F2A95D2F7F80143894C
:10552000548965897689840F951FA61FB71F838BC1
:10553000948BA58BB68BD70152961C9288E195E08F
:105540004FCFEF92FF920F931F93CF93DF93CDB77F
:10555000DEB7C755D1090FB6F894DEBF0FBECDBF79
:105560008C011C821B8280E5E82E82E0F82EFA82F4
:10557000E9821E82CE0101960E94BC0FBE016F5FC0
:105580007F4FCE01CB960E944C0819A218A2FF8E25
:10559000EE8E1BA221968FAD2197811121C0F801BB
:1055A0001382128288EE93E0A0E0B0E084839583BA
:1055B000A683B7838CE292E091838083128E118E52
:1055C0001486C801C95ADF4F0FB6F894DEBF0FBE6C
:1055D000CDBFDF91CF911F910F91FF90EF90089574
:1055E00027E14DE353E0BE01655C7F4FCE014E964F
:1055F0000E94F628882399F2CE01CB960E9495133B
:1056000049A95AA96BA97CA9CE014E960E941010F7
:10561000BE01625E7F4FCE0101960E944C084DE3B1
:1056200053E0BE016F5F7F4FC8010E94151EC9CFB6
:1056300085ED8093BC008091F0049091F104A091DD
:10564000F204B091F3040796A11DB11D23E0B695B5
:10565000A795979587952A95D1F72091BC0024FDB1
:1056600003C01092EE0408954091F0045091F104AB
:105670006091F2047091F304452B462B472B69F39C
:105680000097A105B10541F02AE22A95F1F700C083
:105690000197A109B109E1CF8091EF040C943E0973
:1056A0001F920F920FB60F9211242F933F938F9357
:1056B0009F93AF93BF938091980490919904A09188
:1056C0009A04B0919B043091970423E0230F2D3767
:1056D00058F50196A11DB11D20939704809398045D
:1056E00090939904A0939A04B0939B0480919C0496
:1056F00090919D04A0919E04B0919F040196A11DDC
:10570000B11D80939C0490939D04A0939E04B0933C
:105710009F04BF91AF919F918F913F912F910F90D7
:105720000FBE0F901F90189526E8230F0296A11D1B
:10573000B11DD2CF1F920F920FB60F9211240BB64C
:105740000F922F933F934F935F936F937F938F931A
:105750009F93AF93BF93EF93FF9387E397E00E94EC
:105760006F07FF91EF91BF91AF919F918F917F91C3
:105770006F915F914F913F912F910F900BBE0F90C2
:105780000FBE0F901F9018951F920F920FB60F9299
:1057900011240BB60F922F933F934F935F936F9308
:1057A0007F938F939F93AF93BF93EF93FF9387E381
:1057B00097E00E94C906FF91EF91BF91AF919F9131
:1057C0008F917F916F915F914F913F912F910F90AA
:1057D0000BBE0F900FBE0F901F9018951F920F9247
:1057E0000FB60F9211240BB60F922F933F934F9346
:1057F0005F936F937F938F939F93AF93BF93EF9339
:10580000FF9380EE98E00E946F07FF91EF91BF91A8
:10581000AF919F918F917F916F915F914F913F9148
:105820002F910F900BBE0F900FBE0F901F901895E9
:105830001F920F920FB60F9211240BB60F922F9357
:105840003F934F935F936F937F938F939F93AF9308
:10585000BF93EF93FF9380EE98E00E94C906FF91FB
:10586000EF91BF91AF919F918F917F916F915F91D8
:105870004F913F912F910F900BBE0F900FBE0F9045
:105880001F9018951F920F920FB60F9211240BB60E
:105890000F922F933F934F935F936F937F938F93C9
:1058A0009F93AF93BF93EF93FF9384ED97E00E9494
:1058B0006F07FF91EF91BF91AF919F918F917F9172
:1058C0006F915F914F913F912F910F900BBE0F9071
:1058D0000FBE0F901F9018951F920F920FB60F9248
:1058E00011240BB60F922F933F934F935F936F93B7
:1058F0007F938F939F93AF93BF93EF93FF9384ED29
:1059000097E00E94C906FF91EF91BF91AF919F91DF
:105910008F917F916F915F914F913F912F910F9058
:105920000BBE0F900FBE0F901F9018951F920F92F5
:105930000FB60F9211240BB60F922F933F934F93F4
:105940005F936F937F938F939F93AF93BF93EF93E7
:10595000FF938091B900887F803609F44DC008F02C
:1059600040C0883209F4A9C028F5803109F49DC0EF
:10597000C8F4882309F4FBC0883009F496C0FF916D
:10598000EF91BF91AF919F918F917F916F915F91B7
:105990004F913F912F910F900BBE0F900FBE0F9024
:1059A0001F901895883109F488C0803241F78093A0
:1059B000EC0414C0803409F49DC040F48033B9F382
:1059C0008833E9F68093EC0485ECB0C0803509F4A7
:1059D00085C0883509F496C0883489F60E94182B52
:1059E000CECF883909F48CC038F5883729F050F4C7
:1059F000883611F0803719F683E08093EE04109218
:105A0000360457C0883809F47BC0803919F08038D3
:105A100009F0B5CF80913604803208F071C0E09172
:105A2000360481E08E0F809336048091BB00F0E055
:105A3000EA5EFB4F80833DC0803B39F0E0F4803A62
:105A400009F479C0883A09F09ACF84E08093EE0493
:105A50001092150410921404E091A204F091A30492
:105A600019958091140481110FC081E08093140472
:105A70001092F40309C0803C09F4A6CF883C09F4D5
:105A8000A3CF883B09F07BCFE091150481E08E0F16
:105A900080931504F0E0EC50FC4F80818093BB00B4
:105AA000909115048091140429C08091C9048093B9
:105AB000BB0085EC8093BC0062CF9091EB04809199
:105AC000EA04981758F5E091EB0481E08E0F80937B
:105AD000EB04F0E0E653FB4F8081E9CFE091EB046B
